{
  "contractName": "CapCoin",
  "abi": [
    {
      "constant": true,
      "inputs": [
        {
          "name": "",
          "type": "uint256"
        }
      ],
      "name": "getUsers",
      "outputs": [
        {
          "name": "",
          "type": "address[]"
        },
        {
          "name": "coinBalance",
          "type": "uint256"
        }
      ],
      "payable": false,
      "stateMutability": "view",
      "type": "function"
    },
    {
      "constant": false,
      "inputs": [
        {
          "name": "tokens",
          "type": "uint256"
        }
      ],
      "name": "buyTokens",
      "outputs": [
        {
          "name": "",
          "type": "address",
          "components": [
            {
              "name": "name",
              "type": "string"
            },
            {
              "name": "coinBalance",
              "type": "uint256"
            }
          ]
        },
        {
          "name": "coinBalance",
          "type": "uint256"
        }
      ],
      "payable": false,
      "stateMutability": "nonpayable",
      "type": "function"
    },
    {
      "constant": true,
      "inputs": [
        {
          "name": "",
          "type": "uint256"
        }
      ],
      "name": "users",
      "outputs": [
        {
          "components": [
            {
              "name": "name",
              "type": "string"
            },
            {
              "name": "coinBalance",
              "type": "uint256"
            }
          ],
          "name": "",
          "type": "address"
        }
      ],
      "payable": false,
      "stateMutability": "view",
      "type": "function"
    },
    {
      "anonymous": false,
      "inputs": [
        {
          "indexed": false,
          "name": "name",
          "type": "string"
        },
        {
          "indexed": false,
          "name": "name",
          "type": "string"
        }
      ],
      "name": "createUser",
      "type": "function",
      "constant": false,
      "outputs": [
        {
          "name": "",
          "type": "string"
        },
        {
          "name": "",
          "type": "uint256"
        }
      ],
      "payable": false,
      "stateMutability": "nonpayable"
    },
    {
      "anonymous": false,
      "inputs": [
        {
          "components": [
            {
              "name": "name",
              "type": "string"
            },
            {
              "name": "coinBalance",
              "type": "uint256"
            }
          ],
          "indexed": false,
          "name": "",
          "type": "address"
        },
        {
          "indexed": false,
          "name": "name",
          "type": "string"
        }
      ],
      "name": "getUser",
      "type": "function",
      "constant": true,
      "outputs": [
        {
          "name": "",
          "type": "string"
        },
        {
          "name": "",
          "type": "uint256"
        }
      ],
      "payable": false,
      "stateMutability": "view"
    },
    {
      "anonymous": false,
      "inputs": [
        {
          "indexed": false,
          "name": "",
          "type": "address"
        }
      ],
      "name": "addressToUser",
      "type": "function",
      "constant": true,
      "outputs": [
        {
          "name": "name",
          "type": "string"
        },
        {
          "name": "coinBalance",
          "type": "uint256"
        }
      ],
      "payable": false,
      "stateMutability": "view"
    },
    {
      "anonymous": false,
      "inputs": [
        {
          "indexed": false,
          "name": "name",
          "type": "string"
        },
        {
          "indexed": false,
          "name": "totalCoins",
          "type": "uint256"
        }
      ],
      "name": "NewUser",
      "type": "event"
    },
    {
      "anonymous": false,
      "inputs": [
        {
          "indexed": false,
          "name": "totalCoins",
          "type": "uint256"
        }
      ],
      "name": "BoughtCoins",
      "type": "event"
    }
  ],
  "bytecode": "0x6060604052620f42406000556000600155341561001b57600080fd5b6108c08061002a6000396000f300606060405260043610610077576000357c0100000000000000000000000000000000000000000000000000000000900463ffffffff168062ce8e3e1461007c5780633610724e146100e6578063365b98b214610109578063507ffba51461016c578063832880e7146101c9578063edf538861461025e575b600080fd5b341561008757600080fd5b61008f610334565b6040518080602001828103825283818151815260200191508051906020019060200280838360005b838110156100d25780820151818401526020810190506100b7565b505050509050019250505060405180910390f35b34156100f157600080fd5b61010760048080359060200190919050506103c8565b005b341561011457600080fd5b61012a6004808035906020019091905050610494565b604051808273ffffffffffffffffffffffffffffffffffffffff1673ffffffffffffffffffffffffffffffffffffffff16815260200191505060405180910390f35b341561017757600080fd5b6101c7600480803590602001908201803590602001908080601f016020809104026020016040519081016040528093929190818152602001838380828437820191505050505050919050506104d3565b005b34156101d457600080fd5b6101dc610645565b6040518080602001838152602001828103825284818151815260200191508051906020019080838360005b83811015610222578082015181840152602081019050610207565b50505050905090810190601f16801561024f5780820380516001836020036101000a031916815260200191505b50935050505060405180910390f35b341561026957600080fd5b610295600480803573ffffffffffffffffffffffffffffffffffffffff16906020019091905050610778565b60405180806020018381526020018281038252848181546001816001161561010002031660029004815260200191508054600181600116156101000203166002900480156103245780601f106102f957610100808354040283529160200191610324565b820191906000526020600020905b81548152906001019060200180831161030757829003601f168201915b5050935050505060405180910390f35b61033c61079b565b60038054806020026020016040519081016040528092919081815260200182805480156103be57602002820191906000526020600020905b8160009054906101000a900473ffffffffffffffffffffffffffffffffffffffff1673ffffffffffffffffffffffffffffffffffffffff1681526020019060010190808311610374575b5050505050905090565b80600260003373ffffffffffffffffffffffffffffffffffffffff1673ffffffffffffffffffffffffffffffffffffffff168152602001908152602001600020600101600082825401925050819055507f341d66adfc7fd78ee7369e45a33be39edc3a99c48f14ebec280e4795333d6355600260003373ffffffffffffffffffffffffffffffffffffffff1673ffffffffffffffffffffffffffffffffffffffff168152602001908152602001600020600101546040518082815260200191505060405180910390a150565b6003818154811015156104a357fe5b90600052602060002090016000915054906101000a900473ffffffffffffffffffffffffffffffffffffffff1681565b6000600260003373ffffffffffffffffffffffffffffffffffffffff1673ffffffffffffffffffffffffffffffffffffffff16815260200190815260200160002090508181600001908051906020019061052e9291906107af565b50600081600101819055506003805480600101828161054d919061082f565b9160005260206000209001600033909190916101000a81548173ffffffffffffffffffffffffffffffffffffffff021916908373ffffffffffffffffffffffffffffffffffffffff160217905550507fa9f73b89ea96c7b79f1e66b0f72cd59b336630ae66fc1d71c477db96779109e58260006040518080602001838152602001828103825284818151815260200191508051906020019080838360005b838110156106065780820151818401526020810190506105eb565b50505050905090810190601f1680156106335780820380516001836020036101000a031916815260200191505b50935050505060405180910390a15050565b61064d61085b565b6000600260003373ffffffffffffffffffffffffffffffffffffffff1673ffffffffffffffffffffffffffffffffffffffff168152602001908152602001600020600001600260003373ffffffffffffffffffffffffffffffffffffffff1673ffffffffffffffffffffffffffffffffffffffff16815260200190815260200160002060010154818054600181600116156101000203166002900480601f0160208091040260200160405190810160405280929190818152602001828054600181600116156101000203166002900480156107695780601f1061073e57610100808354040283529160200191610769565b820191906000526020600020905b81548152906001019060200180831161074c57829003601f168201915b50505050509150915091509091565b600260205280600052604060002060009150905080600001908060010154905082565b602060405190810160405280600081525090565b828054600181600116156101000203166002900490600052602060002090601f016020900481019282601f106107f057805160ff191683800117855561081e565b8280016001018555821561081e579182015b8281111561081d578251825591602001919060010190610802565b5b50905061082b919061086f565b5090565b81548183558181151161085657818360005260206000209182019101610855919061086f565b5b505050565b602060405190810160405280600081525090565b61089191905b8082111561088d576000816000905550600101610875565b5090565b905600a165627a7a7230582060b92f89f806569b631da72ba8bffd943bd0f0af8a0e990b75cb338b31855f710029",
  "source": "pragma solidity ^0.4.18;\n\ncontract CapCoin {\n\n  event NewUser(string name, uint totalCoins);\n  event BoughtCoins(uint totalCoins);\n\n  uint coinSupply = 1000000;\n  uint coinsBought = 0;\n\n  struct User {\n    string name;\n    uint coinBalance;\n  }\n\n  mapping (address => User) public addressToUser;\n  address[] public users;\n\n  function createUser(string name) public {\n    var user = addressToUser[msg.sender];\n\n    user.name = name;\n    user.coinBalance = 0;\n\n    users.push(msg.sender);\n    NewUser(name, 0);\n  }\n\n  function getUsers() public view returns (address[]) {\n    return users;\n  }\n\n  function getUser() public view returns (string, uint) {\n    return (addressToUser[msg.sender].name, addressToUser[msg.sender].coinBalance);\n  }\n\n  function buyTokens(uint tokens) public {\n    addressToUser[msg.sender].coinBalance += tokens;\n    BoughtCoins(addressToUser[msg.sender].coinBalance);\n  }\n}\n",
  "sourcePath": "/Users/schwartzz8990/Dropbox/fullstack/capCoin/contracts/CapCoin.sol",
  "compiler": {
    "name": "solc",
    "version": "0.4.18+commit.9cf6e910.Emscripten.clang"
  },
  "schemaVersion": "1.0.1",
  "updatedAt": "2018-01-18T17:31:37.748Z"
}