{
  "contractName": "CapCoin",
  "abi": [
    {
      "constant": true,
      "inputs": [
        {
          "name": "",
          "type": "uint256"
        }
      ],
      "name": "getUsers",
      "outputs": [
        {
          "name": "",
          "type": "address[]"
        },
        {
          "name": "coinBalance",
          "type": "uint256"
        }
      ],
      "payable": false,
      "stateMutability": "view",
      "type": "function"
    },
    {
      "constant": false,
      "inputs": [
        {
          "name": "tokens",
          "type": "uint256"
        }
      ],
      "name": "buyTokens",
      "outputs": [
        {
          "name": "",
          "type": "address",
          "components": [
            {
              "name": "name",
              "type": "string"
            },
            {
              "name": "coinBalance",
              "type": "uint256"
            }
          ]
        },
        {
          "name": "coinBalance",
          "type": "uint256"
        }
      ],
      "payable": false,
      "stateMutability": "nonpayable",
      "type": "function"
    },
    {
      "constant": true,
      "inputs": [
        {
          "name": "",
          "type": "uint256"
        }
      ],
      "name": "users",
      "outputs": [
        {
          "components": [
            {
              "name": "name",
              "type": "string"
            },
            {
              "name": "coinBalance",
              "type": "uint256"
            }
          ],
          "name": "",
          "type": "address"
        }
      ],
      "payable": false,
      "stateMutability": "view",
      "type": "function"
    },
    {
      "anonymous": false,
      "inputs": [
        {
          "indexed": false,
          "name": "name",
          "type": "string"
        },
        {
          "indexed": false,
          "name": "name",
          "type": "string"
        }
      ],
      "name": "createUser",
      "type": "function",
      "constant": false,
      "outputs": [
        {
          "name": "",
          "type": "string"
        },
        {
          "name": "",
          "type": "uint256"
        }
      ],
      "payable": false,
      "stateMutability": "nonpayable"
    },
    {
      "anonymous": false,
      "inputs": [
        {
          "components": [
            {
              "name": "name",
              "type": "string"
            },
            {
              "name": "coinBalance",
              "type": "uint256"
            }
          ],
          "indexed": false,
          "name": "",
          "type": "address"
        },
        {
          "indexed": false,
          "name": "name",
          "type": "string"
        }
      ],
      "name": "getUser",
      "type": "function",
      "constant": true,
      "outputs": [
        {
          "name": "",
          "type": "string"
        },
        {
          "name": "",
          "type": "uint256"
        }
      ],
      "payable": false,
      "stateMutability": "view"
    },
    {
      "anonymous": false,
      "inputs": [
        {
          "indexed": false,
          "name": "",
          "type": "address"
        }
      ],
      "name": "addressToUser",
      "type": "function",
      "constant": true,
      "outputs": [
        {
          "name": "name",
          "type": "string"
        },
        {
          "name": "coinBalance",
          "type": "uint256"
        }
      ],
      "payable": false,
      "stateMutability": "view"
    },
    {
      "anonymous": false,
      "inputs": [
        {
          "indexed": false,
          "name": "name",
          "type": "string"
        },
        {
          "indexed": false,
          "name": "totalCoins",
          "type": "uint256"
        }
      ],
      "name": "NewUser",
      "type": "event"
    },
    {
      "anonymous": false,
      "inputs": [
        {
          "indexed": false,
          "name": "totalCoins",
          "type": "uint256"
        }
      ],
      "name": "BoughtCoins",
      "type": "event"
    }
  ],
  "bytecode": "0x6060604052620f42406000556000600155341561001b57600080fd5b6108418061002a6000396000f300606060405260043610610077576000357c0100000000000000000000000000000000000000000000000000000000900463ffffffff168062ce8e3e1461007c5780633610724e146100e6578063365b98b214610109578063507ffba51461016c578063832880e7146101c9578063edf538861461025e575b600080fd5b341561008757600080fd5b61008f610334565b6040518080602001828103825283818151815260200191508051906020019060200280838360005b838110156100d25780820151818401526020810190506100b7565b505050509050019250505060405180910390f35b34156100f157600080fd5b61010760048080359060200190919050506103c8565b005b341561011457600080fd5b61012a600480803590602001909190505061041b565b604051808273ffffffffffffffffffffffffffffffffffffffff1673ffffffffffffffffffffffffffffffffffffffff16815260200191505060405180910390f35b341561017757600080fd5b6101c7600480803590602001908201803590602001908080601f0160208091040260200160405190810160405280939291908181526020018383808284378201915050505050509190505061045a565b005b34156101d457600080fd5b6101dc6105c6565b6040518080602001838152602001828103825284818151815260200191508051906020019080838360005b83811015610222578082015181840152602081019050610207565b50505050905090810190601f16801561024f5780820380516001836020036101000a031916815260200191505b50935050505060405180910390f35b341561026957600080fd5b610295600480803573ffffffffffffffffffffffffffffffffffffffff169060200190919050506106f9565b60405180806020018381526020018281038252848181546001816001161561010002031660029004815260200191508054600181600116156101000203166002900480156103245780601f106102f957610100808354040283529160200191610324565b820191906000526020600020905b81548152906001019060200180831161030757829003601f168201915b5050935050505060405180910390f35b61033c61071c565b60038054806020026020016040519081016040528092919081815260200182805480156103be57602002820191906000526020600020905b8160009054906101000a900473ffffffffffffffffffffffffffffffffffffffff1673ffffffffffffffffffffffffffffffffffffffff1681526020019060010190808311610374575b5050505050905090565b80600260003373ffffffffffffffffffffffffffffffffffffffff1673ffffffffffffffffffffffffffffffffffffffff1681526020019081526020016000206001016000828254019250508190555050565b60038181548110151561042a57fe5b90600052602060002090016000915054906101000a900473ffffffffffffffffffffffffffffffffffffffff1681565b6000600260003373ffffffffffffffffffffffffffffffffffffffff1673ffffffffffffffffffffffffffffffffffffffff1681526020019081526020016000209050818160000190805190602001906104b5929190610730565b50600081600101819055506001600380548060010182816104d691906107b0565b9160005260206000209001600033909190916101000a81548173ffffffffffffffffffffffffffffffffffffffff021916908373ffffffffffffffffffffffffffffffffffffffff16021790555050507f66ab3fea2083d9ba15d99b595186fe7fc18e6eba393c0fc056f420e96c3caa44826040518080602001828103825283818151815260200191508051906020019080838360005b8381101561058857808201518184015260208101905061056d565b50505050905090810190601f1680156105b55780820380516001836020036101000a031916815260200191505b509250505060405180910390a15050565b6105ce6107dc565b6000600260003373ffffffffffffffffffffffffffffffffffffffff1673ffffffffffffffffffffffffffffffffffffffff168152602001908152602001600020600001600260003373ffffffffffffffffffffffffffffffffffffffff1673ffffffffffffffffffffffffffffffffffffffff16815260200190815260200160002060010154818054600181600116156101000203166002900480601f0160208091040260200160405190810160405280929190818152602001828054600181600116156101000203166002900480156106ea5780601f106106bf576101008083540402835291602001916106ea565b820191906000526020600020905b8154815290600101906020018083116106cd57829003601f168201915b50505050509150915091509091565b600260205280600052604060002060009150905080600001908060010154905082565b602060405190810160405280600081525090565b828054600181600116156101000203166002900490600052602060002090601f016020900481019282601f1061077157805160ff191683800117855561079f565b8280016001018555821561079f579182015b8281111561079e578251825591602001919060010190610783565b5b5090506107ac91906107f0565b5090565b8154818355818115116107d7578183600052602060002091820191016107d691906107f0565b5b505050565b602060405190810160405280600081525090565b61081291905b8082111561080e5760008160009055506001016107f6565b5090565b905600a165627a7a7230582060b5a1a6ab4c1ac3726318d95fc76a9dca03e1c21bae3d90bc00e90b3d48fa0d0029",
  "source": "pragma solidity ^0.4.18;\n\ncontract CapCoin {\n\n  event NewUser(string name);\n  // event BoughtCoins()\n\n  uint coinSupply = 1000000;\n  uint coinsBought = 0;\n\n  struct User {\n    string name;\n    uint coinBalance;\n  }\n\n  mapping (address => User) public addressToUser;\n  address[] public users;\n\n  function createUser(string name) public {\n    var user = addressToUser[msg.sender];\n\n    user.name = name;\n    user.coinBalance = 0;\n\n    users.push(msg.sender) - 1;\n    NewUser(name);\n  }\n\n  function getUsers() public view returns (address[]) {\n    return users;\n  }\n\n  function getUser() public view returns (string, uint) {\n    return (addressToUser[msg.sender].name, addressToUser[msg.sender].coinBalance);\n  }\n\n  function buyTokens(uint tokens) public {\n    addressToUser[msg.sender].coinBalance += tokens;\n    // BoughtCoins(addressToUser[msg.sender].coinBalance);\n  }\n}\n",
  "sourcePath": "/Users/schwartzz8990/Dropbox/fullstack/capCoin/contracts/CapCoin.sol",
  "compiler": {
    "name": "solc",
    "version": "0.4.18+commit.9cf6e910.Emscripten.clang"
  },
  "schemaVersion": "1.0.1",
  "updatedAt": "2018-01-18T18:22:29.035Z"
}